:100000000C9435000C94CC010C94C2010C94B801F2
:100010000C94AE010C94A4010C949A010C949001E0
:100020000C9486010C947C010C9472010C94680170
:100030000C945E010C9454010C944A010C94400100
:100040000C9436010C942C010C9422010C94180190
:100050000C94A9000C940E010C9404010C94FA0069
:100060000C94F0000C94E600D60111241FBECFEFD3
:10007000D8E0DEBFCDBF11E0A0E0B1E0EEEEF5E0EC
:1000800002C005900D92A431B107D9F721E0A4E197
:10009000B1E001C01D92AC39B207E1F710E0C5E351
:1000A000D0E004C02197FE010E94EF02C433D107C3
:1000B000C9F70E94E9010C944C0208958F929F9217
:1000C000AF92BF92CF92DF92EF92FF920F931F9366
:1000D000FC0182819381092E000CAA0BBB0B6C01E1
:1000E0007D01FF0CCC08DC2C76019C01AD016C2D50
:1000F0007C2D8C2D9C2D04E00E94C20259016A01C6
:100100007B018C0120E034E244EF50E060E070E0DD
:1001100080E090E00E9465024901F1E08F1A9108A9
:100120009092C5008092C400E1ECF0E088E1808309
:100130008EE08093C2008081806480831F910F9144
:10014000FF90EF90DF90CF90BF90AF909F908F90F7
:1001500008951F920F920FB60F9211242F935F9361
:100160006F937F938F939F93AF93BF93EF93FF937F
:100170008091980190919901FC01EC5EFE4F2481E1
:10018000222359F02093C600019660E870E00E9497
:100190004F029093990180939801FF91EF91BF9145
:1001A000AF919F918F917F916F915F912F910F9060
:1001B0000FBE0F901F9018951F920F920FB60F92BF
:1001C00011240F900FBE0F901F9018951F920F9241
:1001D0000FB60F9211240F900FBE0F901F9018951D
:1001E0001F920F920FB60F9211240F900FBE0F9017
:1001F0001F9018951F920F920FB60F9211240F9017
:100200000FBE0F901F9018951F920F920FB60F926E
:1002100011240F900FBE0F901F9018951F920F92F0
:100220000FB60F9211240F900FBE0F901F901895CC
:100230001F920F920FB60F9211240F900FBE0F90C6
:100240001F9018951F920F920FB60F9211240F90C6
:100250000FBE0F901F9018951F920F920FB60F921E
:1002600011240F900FBE0F901F9018951F920F92A0
:100270000FB60F9211240F900FBE0F901F9018957C
:100280001F920F920FB60F9211240F900FBE0F9076
:100290001F9018951F920F920FB60F9211240F9076
:1002A0000FBE0F901F9018951F920F920FB60F92CE
:1002B00011240F900FBE0F901F9018951F920F9250
:1002C0000FB60F9211240F900FBE0F901F9018952C
:1002D0001F920F920FB60F9211240F900FBE0F9026
:1002E0001F9018951F920F920FB60F9211240F9026
:1002F0000FBE0F901F9018951F920F920FB60F927E
:1003000011240F900FBE0F901F9018951F920F92FF
:100310000FB60F9211240F900FBE0F901F901895DB
:100320001F920F920FB60F9211240F900FBE0F90D5
:100330001F9018951F920F920FB60F9211240F90D5
:100340000FBE0F901F9018951F920F920FB60F922D
:1003500011240F900FBE0F901F9018951F920F92AF
:100360000FB60F9211240F900FBE0F901F9018958B
:100370001F920F920FB60F9211240F900FBE0F9085
:100380001F9018951F920F920FB60F9211240F9085
:100390000FBE0F901F9018951F920F920FB60F92DD
:1003A00011240F900FBE0F901F901895E4E1F1E01B
:1003B00086E091E09183808380E895E29383828355
:1003C000109299011092980110929B0110929A013B
:1003D00008958091000190910101DC01ED91FC9163
:1003E0000190F081E02D0995789400E810E09AE002
:1003F000F92E8091000190910101DC01ED91FC91B9
:100400000280F381E02D0995C0919801D091990166
:10041000CC5EDE4FEC808AE0C82E81E0D82EF6015B
:1004200041916F01E0919A01F0919B01CF010196FA
:10043000B8010E944F02EC5EFE4F442331F044832A
:1004400090939B0180939A01EACFF48290939B0151
:1004500080939A018C5E9E4FDC0114961C92E110F1
:1004600011C08C81882371F08093C600809198011F
:10047000909199010196B8010E944F0290939901C1
:1004800080939801BFEFE3EDF0E3B150E040F0401E
:10049000E1F700C00000ADCFF8940C94F50297FB93
:1004A000072E16F4009407D077FD09D00E94DB02D6
:1004B00007FC05D03EF4909581959F4F0895709567
:1004C00061957F4F0895689401C0E8948F929F9240
:1004D000CF93DF930E947102DF91CF919F908F9015
:1004E000089588249924F401E401B0E49F93AA2795
:1004F0009A158B049C04ED05FE05CF05D007A107D6
:1005000098F4AD2FDC2FCF2FFE2FE92D982C892EBC
:10051000982F872F762F652F542F432F322F222786
:10052000B85031F7BF9127C01B2EBF91BB27220FB8
:10053000331F441F551F661F771F881F991F881C74
:10054000991CEE1FFF1FCC1FDD1FAA1FBB1F8A14A3
:100550009B04EC05FD05CE05DF05A007B10748F0BB
:100560008A189B08EC09FD09CE09DF09A00BB10B25
:1005700021601A94E1F62EF49401AF01BE01CD0181
:10058000000C0895002E083090F0982F872F762FBA
:10059000652F542F432F322F22270850F4CF220FDC
:1005A000331F441F551F661F771F881F991F0A9509
:1005B000B2F7002D0895AA1BBB1B51E107C0AA1F6B
:1005C000BB1FA617B70710F0A61BB70B881F991FF4
:1005D0005A95A9F780959095BC01CD010895EE0F2D
:0E05E000FF1F0590F491E02D0994F894FFCFD1
:1005EE001401000000005E005D0043756E74666CC1
:0405FE0061707300B5
:00000001FF
